:060000000A128A11122809
:10000800FE00030EF3000408F4000A08F50083124A
:1000180003137F08F6000A128A112D2C0A128A117E
:1000280015288313AF30FD000530FE002E30FF0089
:10003800A03084000A128A11EF24F701F801F901AF
:10004800FA0183010A128A11A72CFF0000308A00E6
:100058007F0882072E280A128A111E2D0A128A1179
:10006800662D0A128A110D2DFF0000308A007F08C4
:1000780082073D280A128A114C2D0A128A116C2D0A
:100088000A128A113D2D83120313B3003308A50009
:100098002508AA00AC01B20124083202031808009E
:1000A8000530A5002508A00032080A128A11D824B4
:1000B8000A128A11831203133307A6002608AA001E
:1000C8003208A5002508AB0024082B0203183F2A94
:1000D8002A08023E840083130008A5000530A60004
:1000E8002608A0002B080A128A11D8240A128A119D
:1000F800831203133307A7002708023E84008313E3
:100108000008A8002508280203183A2A0530A50087
:100118002508A0002B080A128A11D8240A128A116D
:10012800831203133307A6002608AA002B08A5008C
:100138002508AC000530A5002508A0002C080A12E7
:100148008A11D8240A128A11831203133307A600CE
:10015800260A840083130008A7002708AE0005308C
:10016800A5002508A0002C080A128A11D8240A1212
:100178008A11831203133307A6002608023E84005F
:1001880083130008A7002708AF000530A50025083D
:10019800A0002C080A128A11D8240A128A11831284
:1001A80003133307A6002608043E840083130008BF
:1001B800A7002708B1000530A5002508A0002C08D5
:1001C8000A128A11D8240A128A11831203133307D8
:1001D800A6002608840083130008A7002708AD009E
:1001E8000530A5002508A0002C080A128A11D82479
:1001F8000A128A11831203133307A6002608033E46
:10020800840083130008A7002708B0000530A50064
:100218002508A00032080A128A11D8240A128A1165
:10022800831203133307A600260A840083130008E9
:10023800A7000530A8002808A0002C080A128A1177
:10024800D8240A128A11831203133307A900290A32
:1002580084002708831380000530A5002508A00026
:1002680032080A128A11D8240A128A118312031337
:100278003307A6002608023E840083130008A7005F
:100288000530A8002808A0002C080A128A11D824D2
:100298000A128A11831203133307A9002908023EA0
:1002A80084002708831380000530A5002508A000D6
:1002B80032080A128A11D8240A128A1183120313E7
:1002C8003307A6002608043E840083130008A7000D
:1002D8000530A8002808A0002C080A128A11D82482
:1002E8000A128A11831203133307A9002908043E4E
:1002F80084002708831380000530A5002508A00086
:1003080032080A128A11D8240A128A118312031396
:100318003307A6002608840083130008A7000530C9
:10032800A8002808A0002C080A128A11D8240A124A
:100338008A11831203133307A900290884002708A8
:10034800831380000530A5002508A00032080A1292
:100358008A11D8240A128A11831203133307A600BC
:100368002608033E840083130008A7000530A80070
:100378002808A0002C080A128A11D8240A128A1107
:10038800831203133307A9002908033E84002708B2
:10039800831380002E08A5000530A6002608A000BB
:1003A80032080A128A11D8240A128A1183120313F6
:1003B8003307A700270A84002508831380002F0825
:1003C800A5000530A6002608A00032080A128A11E6
:1003D800D8240A128A11831203133307A7002708A7
:1003E800023E84002508831380003108A5000530EB
:1003F800A6002608A00032080A128A11D8240A1278
:100408008A11831203133307A7002708043E8400C8
:100418002508831380002D08A5000530A6002608AE
:10042800A00032080A128A11D8240A128A118312EB
:1004380003133307A70027088400250883138000C7
:100448003008A5000530A6002608A00032080A12C8
:100458008A11D8240A128A11831203133307A700BA
:100468002708033E84002508831380000130A50077
:100478002508AB0768280130A5002508B2075028D1
:1004880083120313BD003D08B6003608E90034089E
:10049800B6003608E8003508B6003608A4003D085E
:1004A8000A128A1147200A128A1183120313C30100
:1004B800350843020318432B0530B6003608A00060
:1004C80043080A128A11D8240A128A1183120313C4
:1004D8003D07B7003708840083130008B8000530CB
:1004E800B9003908A00034080F3E840001308007A5
:1004F800840A0318800A84030008BA00840A0008E2
:10050800BB003A080A128A11D8240A128A118312E7
:1005180003133407BC003C088400380883138000A8
:100528000530B6003608A00043080A128A11D824FC
:100538000A128A11831203133D07B700370A840091
:1005480083130008B8000530B9003908A000340842
:100558000F3E840000080A128A11D8240A128A1150
:10056800831203133407BA003A0A84003808831345
:1005780080000530B6003608A00043080A128A1128
:10058800D8240A128A11831203133D07B7003708CB
:10059800023E840083130008B8000530B90039080A
:1005A800A00034080F3E840000080A128A11D824DB
:1005B8000A128A11831203133407BA003A08023E5A
:1005C80084003808831380000530B6003608A00080
:1005D80043080A128A11D8240A128A1183120313B3
:1005E8003D07B7003708033E840083130008B800AE
:1005F8000530B9003908A00034080F3E840000080F
:100608000A128A11D8240A128A1183120313340792
:10061800BA003A08033E8400380883138000053086
:10062800B6003608A00043080A128A11D8240A1214
:100638008A11831203133D07B7003708043E84006C
:1006480083130008B8000530B9003908A000340841
:100658000F3E840000080A128A11D8240A128A114F
:10066800831203133407BA003A08043E840038089A
:10067800831380000130B6003608C3075C2A0A12CB
:100688008A11FC240A128A11053083120313B6005A
:100698003608A00034080F3E8400831300080A12AD
:1006A8008A11D8240A128A11831203133407B70057
:1006B8003708840083130008B8000530B9003908EA
:1006C800A00043080A128A11D8240A128A113E3E51
:1006D8008400831203133808831380000530B600A2
:1006E8003608A00034080F3E840000080A128A1158
:1006F800D8240A128A11831203133407B700370A61
:10070800840083130008B8000530B9003908A00038
:1007180043080A128A11D8240A128A11013E3E3E61
:100728008400831203133808831380000530B60051
:100738003608A00034080F3E840000080A128A1107
:10074800D8240A128A11831203133407B700370812
:10075800023E840083130008B8000530B900390848
:10076800A00043080A128A11D8240A128A11023EEC
:100778003E3E84008312031338088313800005303B
:10078800B6003608A00034080F3E840000080A129C
:100798008A11D8240A128A11831203133407B70066
:1007A8003708033E840083130008B8000530B900F9
:1007B8003908A00043080A128A11D8240A128A119B
:1007C800033E3E3E840083120313380883138000DF
:1007D8000530B6003608A00034080F3E8400000833
:1007E8000A128A11D8240A128A11831203133407B1
:1007F800B7003708043E840083130008B8000530AA
:10080800B9003908A00043080A128A11D8240A122C
:100818008A11043E3E3E8400831203133808831372
:10082800800034080F3E8400FF308007840F0008E2
:100838000318000AFF00FF307F078000840342038B
:10084800031D482B41080A128A1129200A128A110D
:10085800482BE0308E00B1308F000C1C3C2C0C1063
:100868000130F2007208F9070130F2007208F80747
:100878007903031D562C02307806031D562CF90106
:10088800F8016908033E8400831300080A128A11DC
:1008980038200A128A11831203136908083E84005B
:1008A8008313752C7903031D652CF9018312031337
:1008B8006908043E840083138001800A6908033EA6
:1008C800742C02307806031D7B2CF8018312031365
:1008D8006908093E840083138001800A6908083E7C
:1008E800840000080A128A1138200A128A11053079
:1008F8007906031D9A2CF9018312031368080F3E29
:100908008400023083138000840A00308000680865
:10091800043E84008001800A6808093E8400800142
:10092800800A68080E3E84008001800A76088312D7
:100938000313FF0075088A0074088400730E83008F
:10094800FE0E7E0E090048308400A0308312031387
:10095800C4000408C5000F30C6004408840083138F
:100968000008C700C40A4508840047088000C50A73
:10097800C60BB12CFF30E600FF30E7000A128A11DF
:100988005B250A128A11573083120313C4004408E6
:10099800B4000330C5004508B50048300A128A1172
:1009A80044220A128A11D72C83120313A300A2012E
:1009B800231CE22C2008A1002108A2070310A00D87
:1009C8000310A30C2308031DDC2C220808007E0852
:1009D8008A007F088200EB240A128A118000840AA8
:1009E80004087D0603190034FF0A0319FE0AEF2CD8
:1009F800E030831203138E00B1308F008B170B1772
:100A0800831603130C148312031310140C108B1782
:100A18000800063083120313A1002F30A000A00B9A
:100A2800132DA10B132D182D8312031306148610F2
:100A380006110800343083120313A100F130A0001E
:100A4800A00B242DA10B242D83120313061086104E
:100A58000615080001340434143407340134023410
:100A680014345034043401340334503478340134A9
:100A780001340630F1003030F000F00B412DF10B5D
:100A8800412D000083120313061486100611080076
:100A98003430F100F130F000F00B502DF10B502DF7
:100AA800552D8312031306108610061508008316A9
:100AB80003130610861006118312031306108610FE
:100AC8000611080083120313061086140611080085
:0C0AD80083120313061086140611080098
:02400E00FB3F76
:00000001FF
